:070000000200501203B632AA
:040013001203D032D2
:08001B00C28EC28F12041332E1
:0F00500012050212050212050212050212050224
:10005F001205027F301204A21205027F301204A291
:10006F001205027F301204A21205027F381204A279
:10007F001205027F081204A21205027F011204A2C8
:10008F001205027F061204A21205027F0F1204A2AC
:10009F001205020200A575A88D90100079217F80AE
:0E00AF001204A27823120528120485120528D7
:0F00BD00120485120528120485120528120485E5
:0F00CC0012052812048512052812048512052832
:0F00DB00120485120528120485120528120485C7
:0F00EA0012052812048512052812048512052814
:0F00F900120485120528120485120528120485A9
:0E0108001205281204851205281204857FC0F6
:0F0116001204A21205281204851205281204856E
:0F012500120528120485120528120485120528D8
:0F0134001204851205281204851205281204856D
:0F014300120528120485120528120485120528BA
:0F0152001204851205281204851205281204854F
:0F0161001205281204851205281204851205289C
:0F017000120485120528120485120502120502D9
:0F017F00120502120502120502120502120502F4
:0F018E00120502120502120502120502120502E5
:0F019D00120502120502120502120502120502D6
:0F01AC00120502120502120502120502120502C7
:0F01BB00120502120502120502120502120502B8
:0F01CA00120502120502120502120502120502A9
:0F01D9001205021205021205021205021205029A
:0F01E8001205021205021205021205021205028B
:0F01F7001205021205021205021205021205027C
:0F0206001205021205021205021205021205026C
:0F0215001205021205021205021205021205025D
:0F0224001205021205021205021205021205024E
:0F0233001205021205021205021205021205023F
:0F02420012050212050212050212050212050230
:0F02510012050212050212050212050212050221
:0F02600012050212050212050212050212050212
:0F026F0012050212050212050212050212050203
:0F027E00120502120502120502120502120502F4
:0F028D00120502120502120502120502120502E5
:0F029C00120502120502120502120502120502D6
:0F02AB00120502120502120502120502120502C7
:0F02BA00120502120502120502120502120502B8
:0F02C900120502120502120502120502120502A9
:0F02D8001205021205021205021205021205029A
:0F02E7001205021205021205021205021205028B
:0F02F6001205021205021205021205021205027C
:0F0305001205021205021205021205021205026C
:0F0314001205021205021205021205021205025D
:0F0323001205021205021205021205021205024E
:1003320012050212050212050212049378547E304D
:0E0342007A307B307C307F811204A212048559
:0F0350001204857849120485784D12048578458A
:0F035F001204857852120485783D120485783097
:10036E00120485120485783A1204857830120485B9
:0F037E001204857FC01204A27853120485784FB1
:0F038D001204857852120485785412048578453D
:0F039C001204857849120485784F120485783D44
:1003AB001204850203B11204B380FBE493F709A393
:0F03BB001203EB12040012051512051512051599
:0F03CA00120515051F22C2CAC28E75A80079211F
:1003D900D51F0280FEE71203EB120400091204B3D1
:1003E90080EEF5F0C2F7C2F6D2F5D2F4A8F07FC9D3
:1003F9001204A212048522C4C2E7C2E6D2E5D2E4FD
:0E040900F87FC81204A2120485220EBE3A0427
:10041700120426227F8A1204A2EEF8120485220A09
:0F0427007E307F8A1204A2EEF8120485BA3609DD
:1004360012044F7F8B1204A2227F891204A2EAF8CB
:0E0446001204857F8B1204A2220B7A30913FA4
:0E045400BB3A091204707F8B1204A2227F872C
:0F0462001204A2EBF81204857F8B1204A2220C65
:100471007B307F861204A2ECF812048591607F8B99
:0E0481001204A222D287D285C28688A0C2872A
:10048F0012050222C285C286D28775A0011205020B
:10049F00C28722D287C285C2868FA0C28712052843
:1004AF00120528221204F21204F21204F21204F2BC
:0F04BF001204F21204F21204F21204F21204F206
:0F04CE001204F21204F21204F21204F21204F2F7
:0F04DD001204F21204F2758910758DFC758B18DC
:0E04EC00D28E308FFD2275CD2E75CCB8D2CABF
:0E04FA0030CFFDC2CFC2CA22758901758CECCD
:10050800758A78D28C308DFDC28CC28D2275890196
:10051800758C3C758AB0D28C308DFDC28CC28D2210
:10052800758901758CFF758AD8D28C308DFDC28C87
:03053800C28D224F
:101000002407312178834918463562568155720686
:101010005768940434176169488779963099280293
:011020003699
:00000001FF
